:020000040800F2
:10000000300A00208101000845380008D533000877
:1000100000000000000000000000000000000000E0
:100020000000000000000000000000008F38000801
:1000300000000000000000008D3800089138000822
:100040009301000893010008930100089301000840
:10005000930100089301000893010008BD200008E7
:100060000000000093010008930100080000000058
:1000700093010008930100089301000800000000AC
:10008000930100089301000800000000930100089C
:10009000000000009301000893010008930100088C
:1000A000000000009301000800000000453B00082C
:1000B00093010008000000000000000000000000A4
:1000C00000F002F800F030F80CA030C8083824180E
:1000D0002D18A246671EAB4654465D46AC4201D180
:1000E00000F022F87E460F3E0FCCB6460126334282
:1000F00000D0FB1AA246AB46334318470056000017
:10010000205600000023002400250026103A01D3C9
:1001100078C1FBD8520700D330C100D50B607047BF
:100120001FB51FBD10B510BD00F012FE1146FFF740
:10013000F7FF00F099FE00F02AFE03B4FFF7F2FF8C
:1001400003BC00F05FFE000070B505460C46164685
:1001500002E00FCC0FC5103E102EFAD2082E02D3AB
:1001600003CC03C5083E042E07D301CC01C5361FBE
:1001700003E021782970641C6D1C761EF9D270BDD5
:100180000748804707480047FEE7FEE7FEE7FEE72F
:10019000FEE7FEE704480549034A054B70470000A7
:1001A00099380008C100000830060020300A0020FD
:1001B00030060020034610B50B439B070FD1042ADD
:1001C0000DD308C810C9121FA342F8D018BA21BA1B
:1001D000884201D9012010BD0020C04310BD002A73
:1001E00003D0D30703D0521C07E0002010BD0378D2
:1001F0000C78401C491C1B1B07D103780C78401C51
:10020000491C1B1B01D1921EF1D1184610BD01E003
:1002100004C0091F0429FBD28B0701D50280801C72
:10022000C90700D00270704700290BD0C30702D065
:100230000270401C491E022904D3830702D50280A4
:10024000801C891EE3E70022EEE70022DFE70022A0
:1002500003098B422CD3030A8B4211D300239C4603
:100260004EE003460B433CD4002243088B4231D37B
:1002700003098B421CD3030A8B4201D394463FE00F
:10028000C3098B4201D3CB01C01A524183098B426F
:1002900001D38B01C01A524143098B4201D34B0158
:1002A000C01A524103098B4201D30B01C01A5241BB
:1002B000C3088B4201D3CB00C01A524183088B4242
:1002C00001D38B00C01A524143088B4201D34B002B
:1002D000C01A5241411A00D201465241104670479D
:1002E0005DE0CA0F00D04942031000D340425340A2
:1002F00000229C4603098B422DD3030A8B4212D362
:10030000FC22890112BA030A8B420CD38901921193
:100310008B4208D3890192118B4204D389013AD0D0
:10032000921100E08909C3098B4201D3CB01C01AA5
:10033000524183098B4201D38B01C01A52414309B8
:100340008B4201D34B01C01A524103098B4201D3A6
:100350000B01C01A5241C3088B4201D3CB00C01A13
:10036000524183088B4201D38B00C01A5241D9D22B
:1003700043088B4201D34B00C01A5241411A00D2AC
:100380000146634652415B10104601D34042002BA8
:1003900000D54942704763465B1000D3404201B527
:1003A0000020C046C04602BD70477047704700003D
:1003B0000246C80FC00781434B0030B54B405B007D
:1003C0009B0D20D01923DB06C91801231B05994278
:1003D00020DB0324A40704251346AB400BD3002BDA
:1003E00004D1EB0613409B00E34204D401246407CC
:1003F000002312195941FF231B0599420BD2C90052
:100400000143500F09E0CB0204D501430803024326
:1004100005D0054830BDFF21C905084330BD084659
:1004200007210905884330BD0000C07FF0B50C46A8
:10043000871A9C410D46861A9D4103D2C01BA141DB
:10044000D21963410D0D1F0DC94EEC1BAE435CD09C
:100450007F057F0D0026002F51D02D05AC46A94306
:10046000DD020123ED0A1B051D4320231B1B24D4A1
:100470001746E740381871412F46E740CC199D4098
:100480002818314661410C0D27D161449A4013D59B
:100490000023401C594152000ED140084000012267
:1004A0004B005205D34207D305204007C14201D576
:1004B000B04900E0B0493046F0BD6B00002A00D0E2
:1004C00001229A181F23203C1B1B01D5002302E0A8
:1004D000E540281871410C0DD7D0012424050919D5
:1004E000C407CD0740084908E40F28436144002CA5
:1004F000D5D00024401C61419A40D0D1CDE76A0597
:10050000520DD9D1C90FC907D5E79C4D4E0000281F
:1005100001D0012400E0002434195F00002A01D03A
:10052000012600E00026BE19954FAC420CD8AE4221
:100530000AD8B44206D001256D05EC42BCD0104665
:100540001946F0BD9942FCD000203946F0BDF0B507
:100550001FB40C460F46811A9F412546861A9D41BD
:1005600006D20125ED076F40401ABC4152187B416D
:10057000210D1E0D8D1BAC467D4D8D437ED0750526
:100580006D0D7CD00D05AE46AC431B031B0B794DA6
:1005900052429D41202366469B1B14D31746F740C9
:1005A000381800260090744160462F460741E41930
:1005B00000989D402818664116D4714671189A40DB
:1005C00025D5012320E093182A466A415200002BCA
:1005D00000D0521C1E23203E9B1B002B61DD3541A9
:1005E000EE1728186641E8D5001876415B1C9A4042
:1005F00000D3401C4B05F3181524E34010D3002B07
:1006000052D071467118D30FC01802D3491C05B0DF
:10061000F0BD0123DB079A42F9D140084000F6E71C
:1006200001225205B21801D1002853D00123CC0A6F
:10063000DB029943891E002A08D1020C03D0020C68
:100640000004103902E00246002020390023550B37
:1006500005D112020823550B01D152010D23550C6F
:1006600001D112011B1DD50C01D192009B1C150D4F
:1006700001D152005B1C2025EE1A01E02CE022E0A3
:100680000546F54015439840CA1AE1076918130555
:10069000C918002ABBDA032040070818C10FC90790
:1006A0000FE071466118B2E7F10740080843711086
:1006B00071444A000CD001235B059A42A7D2C90FAE
:1006C000C9070020A3E74905490D26D1002001E014
:1006D0000028F4D100219AE7284D6600002801D0B7
:1006E000012100E0002171185F00002A01D00126DD
:1006F00000E00026BE19224FA94210D8AE420ED803
:10070000B14208D001256D05E94206D01946A8027C
:10071000414010467BE79C4201D0214677E700200C
:10072000394674E710B50C465C4005D50124E40752
:100730006340FFF70CFF10BDFFF778FE10BD30B42B
:100740000C465C4004D50124E407634030BC6DE6F0
:1007500030BCFCE670B50124E40761400D465D4005
:1007600002D4FFF763FE70BD6340FFF7F0FE70BD7B
:10077000FF0700000000F0FF0000F07F0000E0FF36
:100780000000F87F1F22030C02D10F22000402D0C8
:10079000030E03D004E00020014670470002083A2F
:1007A000030F01D10001121F830F01D18000921E9F
:1007B000002801DB4000521E120551184205C012EC
:1007C000411810467047C10FC90700D040420122AE
:1007D00092071143D6E701218907D3E7F0B58B4C87
:1007E0000F09254689B0BD437BD01D092646AE437F
:1007F000FAD00E465E402740F60F3E43254071D0AA
:1008000024012142FBD0FF24AD19A4042D1B039524
:1008100001252D05DB02DB0AC9022B43C90A294346
:100820001E010901040F130F050121431701880B55
:10083000820391432D098C46A90B1E438A039543DD
:10084000B30B9A0396433F09BA0B9403A74302964E
:100850002E467E430497B6464E19D7190C4601968C
:10086000544305977E43371B7646BF1B3601B64679
:10087000BE0B361900967646BC043719009C01D38E
:10088000641C00946400002F01D001263443029EB2
:10089000049F754366467E430496760034196E00C5
:1008A00034190094029C019E1C196643751BAE46C8
:1008B000069465464519059C05956C435943754654
:1008C0000891691A0191049E01465143A41B0491A9
:1008D000611A009C0791E10605D0610901221143CC
:1008E00002E072E06EE06109089D00272C0A2D06E7
:1008F0006918049D7C412A0A2D066918019D6241F0
:10090000AC0DAD026D185441079A910D9202551924
:100910006141029A644658435443069B059A5A43E0
:10092000121A131B9A0E9B015B187A41010B0005EA
:10093000C3185141220A200644195A419A4200D252
:10094000491C01204002814203D315230226F643AD
:1009500002E014230326F6432020C51AA9401746B7
:10096000AF40DA400A4320460399D840091473186F
:1009700019055118039A3843D2075140AC4009D0A9
:100980000122944006D30022401C5141002C01D189
:10099000400840001E4A934212D301220398920657
:1009A000904207DB0520400709181A480143C0128E
:1009B000414004E0032040070818C10FC907002088
:1009C00009B0F0BD0020F107FAE705180C464C41CC
:1009D00011486D42A04115D394181A465A410E4849
:1009E000644290410ED301204A004005824209D35F
:1009F0005A00824206D35940C90F084AC90700204D
:100A00001143DDE700200649DAE700000000FF0798
:100A1000FE070000FFFFFF7F0000E0FF0000F07F07
:100A20000000F87F0121C9050123411842001B067F
:100A3000D3185B0E0AD0C1100722D20689184007CE
:100A40005242D14201D5520089187047090208D597
:100A50000146002A03D0C10FC90700207047104685
:100A60007047420202D00020024970470721090561
:100A70000143F4E70000F87FF0B5FF252D04C60917
:100A8000C209FF2704462E400137CB093E434840A8
:100A90002A402B400746002A6BD0002B69D0AA427F
:100AA00067D0AB4265D0002800DA32460125ED055B
:100AB00029432C4309022002090AD21A4B0C7F2435
:100AC000E31A434C000A7C44E35C7D24240412199D
:100AD00014145B00A218884201D3521C00E04000AD
:100AE00049420C465C4324115C43DB016415E31866
:100AF000040A5C43C502200D0C4644436419250AD0
:100B00005D432303EC0C0D46654300030019EB180D
:100B10004C42A34201D35B18401CD4052018002B83
:100B200007D05B00C91804D3401C002901D140083C
:100B300040003F2189048A4209D3002A08DC1106BB
:100B4000090F04D0032149074018C00FC007F0BDAA
:100B500001224100120689187F2252069142F6D2E4
:100B600005214907C84201D59010F0BDFF20C005FE
:100B7000F0BD002F00DA32461648AA4207D2AB4237
:100B800005D21902090E17D0F80FC007F0BDFF25D6
:100B900063002D06AB42F9D84900A942F6D8AB4212
:100BA00001D1A942F2D0A94201D1002101E06100A6
:100BB0004908D0050843F0BD1102090EFBD0FF2003
:100BC0000243D005F0BD0A460146104654E7000036
:100BD000F24B00000000C07F0102C21504D00123C7
:100BE000DB071943002A0ADB9E239A1A02D408461F
:100BF000D0407047FF2241001206914201D90020E7
:100C00007047C017C04370471F22030C02D10F2248
:100C100000041CD0030E01D10002083A030F01D1D9
:100C20000001121F830F01D18000921E002801DBFA
:100C30004000521ED205511802125118192290403C
:100C400004D3491C002801D14908490008467047CF
:100C5000C10FC90700D04042012292071143D3E7D8
:100C600001218907D0E7000010B5FF22C30D134012
:100C700009D05A4007D0914205DA5C42A14202DD18
:100C8000C905081810BDC40FE407002B06D0002AC0
:100C900006D0002902DBFF20C0050443204610BD1A
:100CA0004102FCD0004810BD0000C07F10B5FF23FA
:100CB0001B0644009C421DD84C009C421AD8034697
:100CC000124A0B4307D4401A02D3EFF3008010BD41
:100CD000EFF3008010BD081A06D2EFF30080012167
:100CE0009043C907084302E0EFF30080904380F38C
:100CF000008810BD0D231B041A4204D011460020A9
:100D000000F006F810BD00F01BF810BD00000090C8
:100D1000C80212D54803400F002804D0C803C043BE
:100D2000012188407047EFF3008000010009032192
:100D30000907084380F300887047002070470000CF
:100D400010B5024800F02BF810BD00000000C07F75
:100D5000754600F053F8AE46050069465346C00894
:100D6000C000854618B020B5FFF714FA60BC002714
:100D70004908B6460026C0C5C0C5C0C5C0C5C0C567
:100D8000C0C5C0C5C0C5403D49008D46704710B5BF
:100D90000446C046C0462046FFF7CFF910BD10B547
:100DA0000C461107090F092904D00A290AD008297D
:100DB0000CD104E011460820FFF7AAFF06E0510617
:100DC00006D501E0510601D50120C007214610BD1E
:100DD000D10607D501010909CC084907000E000614
:100DE000044309E0410F20024907000A0143200E95
:100DF00000061D22D14101430846E7E7004870473D
:100E0000CC05002001491820ABBEFEE726000200F9
:100E1000704770B58C180578401C6B075B0F01D1CB
:100E20000378401C2A1106D10278401C03E00678A2
:100E3000401C0E70491C5B1EF9D12B0705D4002302
:100E4000521E0DD40B70491CFAE70378401CCB1AD4
:100E5000921C03E01D780D70491C5B1C521EF9D5D5
:100E6000A142D8D3002070BD10B50122D2060020C7
:100E7000074B810054585C50401CC0B23028F8D356
:100E8000012004494007886003F0AAFF002010BD3C
:100E90000000002000ED00E008B50021009101688D
:100EA0008A68D243D2071ED08A68104B1A400123A9
:100EB000002A08D0816B102211438163C16B194352
:100EC000C163012008BD8868184388600948084943
:100ED0000068FFF7BCF9009002E00098401E009007
:100EE00000980028F9D1002008BD000015000080FE
:100EF00040420F0008030020F0B5002314E09A00E0
:100F00008458944627461E465A1C06E095004559CB
:100F1000A54201DA2C461646521C8A42F6DBB20084
:100F20008750624684505B1C8B42E8DBF0BD0000BA
:100F300070B501F00FF80121002002F08BFB0121B8
:100F4000084602F087FB0121022002F083FB012109
:100F5000032002F07FFB0021062002F07BFB002132
:100F6000052002F077FB002002F024FC264C2546E9
:100F7000C43D264801F0F8FEE07D030002F0F6FDD6
:100F80000822050A0F22221E142201210F2002F03E
:100F9000B1FB17E00121022002F0ACFB12E00121BD
:100FA000002002F0A7FB0DE00121032002F0A2FBCC
:100FB00000F01CFAE07D002824D003E0012108465F
:100FC00002F098FB00F046FD2878002806D10022A8
:100FD0001146102000F01CFC01202870FF26F53679
:100FE000304601F067FC0021084602F083FB00F068
:100FF00031FD304601F05EFC00221146102000F069
:1010000007FCB6E770BD0000D00300200C050020EF
:1010100001B582B0012301AA02A9024803F070FEC3
:1010200001980EBD20010020F8B5294CA66D206B5B
:10103000FFF7D2FD274900F0BDF805462649206B91
:10104000FFF71AFD3146254E0746B0680090FFF7BE
:1010500013FD394604F0F0F9009904F0EDF9294642
:1010600004F0EAF91E4904F0E7F905461D48274651
:10107000803F85420ADAF86D401CFFF7F1FDF96CFC
:1010800004F032FA02D80120B07001E00020B07004
:10109000B078FFF7E5FD0646F86DFFF7E1FD124970
:1010A000FFF7EAFC616E04F0C7F9314604F0C4F9B9
:1010B000014607484030C07D002801D00020F8BD1F
:1010C000284604F049F9002100F042F8F8BD00007C
:1010D000900300200000404000401C461401002006
:1010E0006666663F000020410000E143F1B5164C02
:1010F0001449E160154E2661606804F02DF905463B
:101100003146284604F028F901462846FFF7B4FC8A
:101110000646606127680098394604F01DFA31469A
:1011200004F08AF9394604F017F9074620607F2059
:101130003146C00504F010FA294604F07DF96060DC
:101140003846F8BD6F12033A64010020000048449D
:10115000F3B581B00121164C8907E1603F263606C0
:101160002661606804F0F8F805463146284604F028
:10117000F3F801462846FFF77FFC064660612768C2
:101180000198394604F0E8F9314604F055F939463A
:1011900004F0E2F8074620607F203146C00504F0E5
:1011A000DBF9294604F048F960603846FEBD0000CE
:1011B0007C01002070B50E467F24E405002806D08F
:1011C0000F493F252D06884203D3284670BD20468F
:1011D00070BDFFF745FD0B49FFF74EFC0021C943E9
:1011E000FFF742FD214604F0ABF9314604F024F943
:1011F000A84200DA2846A042EADD204670BD000081
:101200001027000000401C4670B5FFF729FD064678
:101210000D4904F011F90446304603F06BFE0B490A
:1012200004F00AF90546304603F069FE084904F067
:1012300003F9294604F090F8214604F08DF8054999
:1012400004F08AF870BD0000D26F1FBEB67A733802
:10125000E46A0FB2CD4C544370B51048456B806CB6
:101260000F49884203DD3F242406214601E00D4C4E
:101270000D4904F0E1F806462146284604F0DCF862
:10128000314604F069F80446044D80352C66074960
:101290002046FFF7F1FBE865204670BD10030020F3
:1012A000000048433333333F9A99993E0000C041D0
:1012B00010B50E48C17D052902D00021C18610BDA0
:1012C000C18E3D2901D2491CC186C08E3C28F6D171
:1012D0000648C038006F0028F1D0002000F066FA00
:1012E000002211460F2000F093FA10BDD003002019
:1012F00070B5094D6868E96D88420CD0074C2078BC
:10130000401CC0B22070032805D900F0D9FCE86D5C
:1013100068600020207070BD10030020AC01002028
:10132000F8B505462848294C854205DD2846256044
:101330007F21C9056160F8BD284604F00DF9400021
:101340004008A0602249884212DAFFF795FB064662
:10135000204904F071F8204903F0FEFFE0603046B8
:101360001E4904F069F81E4903F0F6FF206103E00E
:101370001C48E0601C482061E168606803F0ECFFF5
:1013800006463046216903F0E7FF01463046FFF785
:1013900073FB6061009027682846394604F0DCF84A
:1013A000009904F049F8394603F0D6FF054620605D
:1013B0007F20C005009904F0CFF8314604F03CF8D6
:1013C00060602846F8BD0000000016444C01002073
:1013D0000000C841CDCC2C409A99993E6666A64043
:1013E000CDCC4C3F000040400000C040FEB5002581
:1013F000009501950295002402F0DCFE002855D0EE
:10140000732804D0D22806D0F5280BD107E0009825
:10141000401C009006E00198401C019002E00298F8
:10142000401C0290641C0A2CE6DB0321684603F092
:10143000ABFC4C4C012804D0022805D0032808D16D
:1014400005E07320E07404E0D220E07401E0F520B0
:10145000E07400F07FFDE17C05263607732926D075
:10146000D22924D001222021304601F044FC02F090
:1014700035FE00228021304601F03DFC0022202173
:10148000304601F038FC374E203EF5753046C03806
:10149000006AFFF7A1FBFF21373188420DD90220F6
:1014A000F075002211460F2000F0B2F9FEBD0122B6
:1014B0008021304601F01FFCD9E7642802D20720C2
:1014C000F075FEBD2748E17C0F2214236038732994
:1014D0001DD0D22931D0F529F3D12349C160234948
:1014E00001614561224981620562AF218900C163C2
:1014F0007D21C90001644264192181640A21C1640B
:101500001C4981651C49416600F0FEFCFEBD1B497B
:10151000C1601B49016145611A498162056264210C
:10152000C1639621016443648264C3641649816582
:101530001649416600F0C4FCFEBD1549C16015495D
:1015400001614561144981620562C821C16301647A
:1015500043648264C264114981651149416600F0A7
:10156000AFFCFEBDF0030020000034429A99993E82
:1015700000401C4533332340000010410000F04080
:10158000CDCCCC3D00803B44333343400000904001
:10159000000070419A99193E00A00C45666606400D
:1015A0000000C04010B5FFF75BFB024903F044FFA9
:1015B00010BD00000000A53D10B50A4C012210210D
:1015C000204601F098FB00F015FA01220221204686
:1015D00001F091FB01221146204601F08CFB00F046
:1015E00009FA10BD0014005010B513490A68824270
:1015F00012D00860114A00219162114992144A6088
:10160000086008460C3000F0D1FE002804D00D48D8
:101610000121C175FFF78CFC09480C3001F0BAF8C4
:1016200007480A210C3001F055F805480C3000F04D
:1016300049FF80B210BD0000C0000020002401401E
:1016400008040020D0030020F8B51F490A6B0120D0
:10165000000502430A630A6B82430A631A49403158
:101660000A6802430A60096801400091184C174F4C
:101670002760204600F072FE164D0126002802D099
:10168000EE75FFF755FC276003200007606000201F
:10169000A060E06026610421616126766076A07614
:1016A000FF21C231E1612062094920310871A06245
:1016B0000620E062064800F009FF002802D0EE751F
:1016C000FFF736FCF8BD0000001002400024014086
:1016D00014040020D003002000B585B01F20009026
:1016E000002002900320019005206946000701F0C8
:1016F00071FA05B000BD000010B50421044801F0E6
:10170000F3FA002801D0002010BD012010BD000018
:101710000014005010B586B01148426B20210A43D6
:101720004263426B0A400092426B01210A434263CA
:10173000406B084000900420019003910491002424
:10174000029401A9074801F045FA01200003019025
:101750000394052001A9000701F03CFA06B010BD72
:10176000001002400014005010B586B00D48426BC6
:1017700002210A434263406B084000902020019000
:1017800001200290002003900491074C01A92046FB
:1017900001F020FA01222021204601F0ACFA06B027
:1017A00010BD0000001002400004005010B5074BAF
:1017B000002805D001222021184601F09CFA10BD16
:1017C00000222021184601F096FA10BD00040050B6
:1017D00010B586B00D48426B01210A434263406B4D
:1017E00008400090402001900291002003900220C8
:1017F00004900524240701A9204601F0EBF90022FA
:101800004021204601F077FA06B010BD00100240DA
:10181000F8B50F463B4D696E002920D02946E031CE
:10182000497B00291BD12C46374EC034002A0CD0EE
:10183000030002F09BF9111415191D215A5E621460
:10184000141414141456252914000F2803D0102042
:1018500003F052FD02E00F2003F04EFDE685F8BDD7
:10186000012003F049FDF8BD022003F045FDF8BD5D
:10187000032003F041FDF8BD042003F03DFDF8BD59
:101880000F2003F039FDF8BD102003F035FD002FC7
:1018900008D0E86DFF2200B2C332642103F08AFA57
:1018A000E085F8BD207D002809D0152020560300D2
:1018B00002F05CF90604070A0D101404F1E7E6854E
:1018C000F8BD1248E085F8BD1148E085F8BD114823
:1018D000E085F8BD0F489D30E085F8BD0E48E085F5
:1018E000F8BD0E2003F008FDF8BD052003F004FD4F
:1018F000F8BD062003F000FDF8BD072003F0FCFC56
:10190000F8BD0000100300206E0F00002C0800003E
:101910002C0900004C0A00003F0C000010B586B0F6
:101920001248426B20210A434263406B08400090FA
:1019300013200190012002900020039002200490C7
:101940000B4C01A9204601F045F901221146204621
:1019500001F0D1F901220221204601F0CCF9012247
:101960001021204601F0C7F906B010BD001002405A
:101970000014005010B5064800F00CF80448503030
:1019800000F008F80248401D00F004F810BD000007
:101990000208000070B50446154E002210213046A2
:1019A00001F0A9F900F026F80025002202213046B6
:1019B00001F0A1F9200505D501221146304601F0BC
:1019C0009AF904E000220121304601F094F900F078
:1019D00011F801220221304601F08DF900F00AF8D9
:1019E00064006D1CEDB20C2DDFD3FFF7E5FD70BD7B
:1019F00000140050002000BF401CC0B20A28FAD3D7
:101A00007047000070B504460025114E00220221E7
:101A1000304601F070F9E00505D501221146304647
:101A200001F069F904E000220121304601F063F978
:101A3000FFF7E0FF01220221304601F05CF9FFF7D9
:101A4000D9FF64006D1CEDB2092DDFD370BD00001D
:101A50000014005010B500221021074801F04BF986
:101A6000FFF7C8FFFF204A30FFF7CCFF00F006F871
:101A7000FFF7A2FD10BD000000140050F8B50026CD
:101A8000144F1548855D002400220221384601F0DC
:101A900032F9E80705D001221146384601F02BF94A
:101AA00004E000220121384601F025F9FFF7A2FFEA
:101AB00001220221384601F01EF9FFF79BFF6D0855
:101AC000641CE4B2042CDFD3761CF6B20E2ED8D3FD
:101AD000F8BD000000140050FC04002010B586B0D2
:101AE0001248426B01210A434263406B0840009058
:101AF0008020019003910020049002900C4C01A9D9
:101B0000204601F067F80B4902914021019101A99B
:101B1000204601F05FF8072001F066F90022114627
:101B2000072001F06BF906B010BD00000010024064
:101B30000004005000002110F8B506460024064DB0
:101B400001273059401C02D0EF75FFF7F1F9241D31
:101B5000282CF6D3F8BD0000D003002010B586B0C5
:101B600004460021059114216846FEF76EFB022110
:101B7000009101940124029405A9684600F0ACFE8E
:101B8000002803D00248C475FFF7D2F906B010BD93
:101B9000D0030020F0B5A3B022901648219028264B
:101BA00058202830209000246D461FE00020219905
:101BB0000A19431E81000F19B74202D257586F50BD
:101BC00000E06B50401C2028F4D322986A4601198B
:101BD000012000F065FF002807D006480121683089
:101BE000C175FFF7A5F923B0F0BD80342098844279
:101BF000DCD3F8E76803002070B506460024084DE2
:101C00003046FFF7C7FF282229463046FEF7D2FAB2
:101C1000002803D0641CE4B2022CF1D370BD000094
:101C20006803002010B52549234A8A654268CA65C1
:101C3000CA6D4A60C2684A6682680A6602698A6634
:101C40004269CA6682690A67C2694A67426ACA67A4
:101C5000006A8867C86DFF222D32642804D3C86DDE
:101C6000FF23C333984200D9CA650B6E322400208B
:101C7000E34202DB0B6E322B00DD08664B6F322B2A
:101C800000D94867C86E042801D90120C866886E4B
:101C9000002809D0C86E012807D0022807D00328E1
:101CA00002D1FF209130C86510BDCA6510BDFF206C
:101CB0005F30C86510BD0000ACACACAC10030020B8
:101CC00010B50748C16F491CC167064800F010F8FD
:101CD000054800F00DF8054800F00AF810BD0000B6
:101CE0001003002000F0000800F8000800FF0008C2
:101CF00070B50546EFF3108472B6094801F034F868
:101D000000F054FF2846FFF729FF2846FFF714FF8D
:101D10002846FFF771FF00F0B5FE84F3108870BD10
:101D20000C05002010B5EFF3108472B6034801F0E3
:101D30001BF800F005F884F3108810BD0C05002096
:101D400070B51C4C1C4A23681868904207D1606823
:101D50000168914203D1A1680D68954212D01548DF
:101D600080388265FF212D31C16501224266002144
:101D700001668166C266016741678167C167FFF7D7
:101D80009FFF70BD4A6A416A586A02F025FD00282B
:101D900007D0012809D00228F3D1A068FFF742FF3D
:101DA00070BD2068FFF73EFF70BD6068FFF73AFF27
:101DB00070BD000090030020ACACACAC10B50B487B
:101DC000016A0124214301620A4809490160032193
:101DD0004160FF210901816000F09AFF002803D0D3
:101DE0000548C475FFF7A4F810BD0000401002407C
:101DF000003000400C050020D003002010B500206A
:101E0000224AFF211154401CC0B20E28FAD3204CA4
:101E1000A06E00281FD0E06E012804D002280AD04E
:101E200003281CD10FE0FF202D30E065E06D80B26B
:101E300001F0C0FC13E0FF205F30E065E06D80B290
:101E400001F0B8FC0BE0FF209130E065E06D80B25E
:101E500001F0B0FC03E0E06D80B201F0ABFC0121C9
:101E6000002001F09BFC0A480121C030417500218F
:101E7000042001F0EFFBA06F002803D00021062012
:101E800001F0E8FBFFF7E6FD10BD0000FC040020B8
:101E90001003002010B500F0CBF800F0F3F8042197
:101EA000054801F059FA002804D004480121C17501
:101EB000FFF73EF810BD0000A0040020D003002072
:101EC00030B587B00E48416B012529434163406B13
:101ED000284001908020029002200390002104916C
:101EE00005900695052002A9000700F073FE054C39
:101EF000207C002802D1FFF7CDFF257407B030BD4C
:101F000000100240F003002030B587B00F48416B4D
:101F1000012529434163406B284001902020029015
:101F2000022003900021049105900D2006900520C9
:101F300002A9000700F04EFE054C207C002802D1CB
:101F4000FFF7A8FF257407B030BD00000010024065
:101F5000F003002010B586B01048426B01210A43FF
:101F60004263406B08400090A02001900291002045
:101F70000390022004900524240701A9204600F0C4
:101F800029FE00222021204600F0B5FE00228021FB
:101F9000204600F0B0FE06B010BD00000010024068
:101FA00001498863704700000004004010B501211A
:101FB00005200903000700F097FE002801D000204B
:101FC00010BD012010BD000070B58CB005461C216D
:101FD00005A8FEF73AF900240194029403940494AE
:101FE0000B200590FF200130089009940A95069473
:101FF0000C20079001260B9605A800F0E5FF0B4D7D
:10200000002802D0EE75FEF793FF0720019002949E
:1020100003940494002101A800F0F4FE002802D0EB
:10202000EE75FEF785FF0CB070BD0000D0030020F8
:1020300008B50F48C26B02210A43C263C06B084057
:1020400000900D480B4901600C49C16005214160B9
:102050000021016181604161816101F0F1F8002896
:1020600004D007480121C175FEF762FF08BD0000DA
:102070000010024000040040A004002010270000CF
:10208000D003002010B50B48602101600021816061
:102090000161C160816141614160014604224038B3
:1020A00001F0EAF8002804D003480121C175FEF7C9
:1020B0003FFF10BDE0040020D0030020F8B5194E0A
:1020C0003068194D6968401A642803D217494020C6
:1020D000C860F8BD164C012020744021154800F05E
:1020E00003FE07468021134800F0FEFD874201D120
:1020F000012000E0002032686968521A642A00D981
:1021000028702A78904205D03368591A642901D87A
:10211000627401E060742870306868600349402090
:10212000C860F8BDD4000020C400002000180240A0
:10213000D003002000040050F8B5194C194F627804
:10214000510078520521501CFEF781F861700E464F
:102150000025002430190521FEF779F84800385A87
:10216000FEF77EFD0E49A2002431895803F064F980
:10217000294603F0F1F80546641CE4B2052CE9D3C6
:10218000FF20C005C54201D30020F8BD06488542A6
:1021900001DD0648F8BD2846FEF71EFD80B2F8BDF9
:1021A000140100206405002000F07F45FF0F0000AF
:1021B00005490020486005484169042211434161F6
:1021C0000348C1060860704718050020002002403F
:1021D00021433412054A0021516005494A6902230E
:1021E0001A434A61FF210160704700001805002072
:1021F0000020024070B500220C4C636901252B437E
:102200006361EFF3108372B60125ED0408E040C965
:1022100040C0521CD2B21F2A02D166692E436661A9
:10222000202AF4D383F3108870BD00000020024000
:1022300003494A69CB141A434A61FF210160704780
:102240000020024070B5044600F05CFD0419084D02
:1022500005E000F057FDA04201D3032070BD2869BE
:10226000C043C003F5D503482861002070BD0000BD
:10227000002002401180000010B501F0CDFA02F0FC
:10228000E5FD80B2FEF7ECFCFEF730FFFEF7A4FCA4
:1022900080B2FFF751FFFEF7E3FC054903F0CCF8ED
:1022A0000449FEF7E9FB0449FEF7E6FB10BD000018
:1022B0003333534000F07F450AD7233CFEB5044634
:1022C0000020019025462035287D01281ED00120C0
:1022D000287520688168C943C90734D0A16BFF22E3
:1022E0000132914302263143A163C1688907890FF6
:1022F0000091C16889088900C16020688168D205A1
:102300001143816000F0FEFC07460FE00220FEBD95
:1023100000F0F8FCC01B022808D9A06B1021B043C4
:102320000843A063002028750120FEBD2068806856
:102330000028EDDB2068C168009A1143C160A06BE2
:10234000B043A06305E0A06B20210843A0630120F7
:102350000190002028750198FEBD0000F1B58AB0FB
:102360000024114D05AE6F460A98FFF7A7FF00281D
:1023700002D001200BB0F0BDA868A100705040024F
:102380007850641C052CEFDB05216846FEF7B4FD90
:10239000029840122861E868686168680121C903F1
:1023A000084368600020E5E740240140F8B50025B7
:1023B0000022009204462034227D012A39D00123D4
:1023C00023750268966876076AD43A4F4E68BE4213
:1023D00050D0966A0F78BB401E4396620123C26AB2
:1023E0001B079A421FD0012A1DD0022A1BD0032AA4
:1023F00019D0042A17D0052A15D0062A13D0072A87
:1024000011D002688B6856697607760FB3420AD0FE
:102410005369DB08DB005361006842690B7A5B0794
:102420005B0F1A43426108680B2804D00C2802D0C5
:102430003BE00220F8BD204B9A680B2807D0012012
:10244000800502439A6008680B2803D02DE0012024
:10245000C005F6E71A4819490068FDF7F8FE0A2199
:102460004843009002E00098401E00900098002829
:10247000F9D11AE0906A0E78B340984390620868E8
:102480000B2801D00C2810D10B498A680B2804D0E6
:102490000120800582438A6007E00120C005F9E73A
:1024A000816B20221143816301250020207528467D
:1024B000F8BD0000011000000027014040420F005D
:1024C000080300200068006C70470000F8B504465F
:1024D0000025002C05D0A06B26462036002802D00F
:1024E00007E00120F8BD0020E0633075204600F0D1
:1024F000A1F8A06B1022C00600287DDB206881684F
:10250000490779D4A16B1301994302231943A163AD
:102510008168C943C9070CD0C16818239943A368CF
:102520001943C160206801696368090109091943F9
:1025300001612068C1683D4B1940C160207EE1689F
:1025400080030143607EA36A4703012B02D001236D
:102550001B0300E000231F4323693943022B09D0EA
:102560000023194333795B001943A67E0123012E12
:1025700002D00AE00423F4E7002826D0A06B20262E
:102580003043A063E06B1843E063E0690646FF3E1A
:10259000C23E02D0266A304301432068C6680E431B
:1025A000C6600126E06A3607B04212D0012810D07A
:1025B00002280ED003280CD004280AD0052808D001
:1025C000062806D0072804D00FE0012000040143AC
:1025D000DBE720684669F608F60046612068466930
:1025E000A78D7F077F0F3E4346612068C068104E6D
:1025F0003040884209D100E011E00020E063A06B88
:1026000080088000401CA0630DE0A06B022188437D
:102610001043A063E06B1843E063012503E0A06B67
:102620001043A06301252846F8BD000019C2FEFF33
:10263000E7FF3FC370B586B00546142101A8FDF73A
:1026400004FE21490A68012002430A600A68024028
:1026500000921D4A403A936B03439363936B03408C
:102660000093536B03435363526B024000920B6819
:10267000020513430B60096811400091019003208B
:10268000029000260396052001A9000700F0A2FA97
:10269000002000F0B5FD0E4C0C4820606660A6607E
:1026A000E66040152061800060612020A061032069
:1026B0000003E061204600F099F8204600F0C6F8DB
:1026C0002C63656206B070BD4010024008000240F5
:1026D00088050020F8B504460D4627466069203776
:1026E00008280BD02068C068C00709D0A06B202143
:1026F0000843A063002038750120F8BD082600E0DB
:102700000C2600F0FFFA009011E0681C0FD0002D9D
:1027100005D000F0F7FA0099401AA84207D9A06B3B
:1027200004210843A063002038750320F8BD206809
:1027300000683042E9D0A06B012149020843A06340
:102740002068C1680C220905890F00291AD1617E11
:10275000002917D10168090714D5816801234907A9
:10276000002908DB416891434160A06B190288434E
:102770001843A06306E0A06B20210843A063E06B30
:102780001843E063207E002801D120680260002009
:10279000F8BD000070B5044620688068400720D46A
:1027A00025462035287D012819D00120287520468E
:1027B000FEF772FB002811D1A16B0B4A1140FF22DA
:1027C00001321143A1630021E163297522681C21B4
:1027D000116021688A6804231A438A6070BD022050
:1027E00070BD022070BD0000FEF1FFFF70B5044611
:1027F000002C24D020680168490849000160206845
:102800000025056020684560206885602068C560F7
:102810000C49206840181421FDF719FD8000206440
:102820000949E163012282404A60A562E5622563AD
:102830006563A563203465702570002070BD01209C
:1028400070BD0000F8FFFDBF0000024070B50446F7
:10285000002C26D01448256814212818FDF7F7FC11
:10286000800020641148E06302212046203041703E
:102870002A680F490A40A368616826691943E3681A
:102880003343194363691943A3691943E36919433E
:10289000114329600021A1630122427001700020D0
:1028A00070BD012070BD0000F8FFFDBF00000240B8
:1028B0000FC0FFFF70B5044600F024FA0546601C07
:1028C00002D004484068241800F01CFA401BA042C3
:1028D000FAD370BDCC000020F8B504460E460125A1
:1028E00063480178012969D001210170614840687D
:1028F0000004400F60490B688200604882581068ED
:10290000C7B2BC46BB4229D14B68C701FF0DBB42D1
:1029100024D10B690004000E83421FD18B685068DC
:10292000C7B2BB421AD1CB684001400D834215D1DA
:1029300048699368DB03DB0B98420FD18869D36841
:10294000DB03DB0B984209D1CB69106987B2BB422C
:1029500004D10B6A8000800C83421ED06046086060
:102960001068C001C00D486010880004000E0861A6
:102970001079886050684001400DC8609068C003BD
:10298000C00B4861D068C003C00B8861108A80B258
:10299000C86110698000800C08627D272068FF00F4
:1029A00004280DD002281CD00121C90288425AD126
:1029B0003846FFF747FC002836D054E00220F8BD27
:1029C0003846FFF73FFC00284DD1FFF7F1FB3846B2
:1029D000FFF738FC05462A494869042290434861BC
:1029E00041E07D20C000FFF72DFC00283BD1401EB8
:1029F0003060676811E03846FFF7ECFB7D20C000CF
:102A0000FFF720FC05461E484169022291434161BF
:102A1000280001D0376026E08037A0686168C001D7
:102A20004018B842E7D81EE00020C0433060E76895
:102A300013E03846FFF7FCFB7D20C000FFF702FCE7
:102A400005460F484169C21491434161280001D0F5
:102A5000376008E0012000033F182069E1680003A7
:102A60004018B842E5D80248002101702846F8BD58
:102A700018050020001002400021024028560008DE
:102A800000200240012005494A69C3071A434A61F0
:102A90004969002900DA0020704700000020024048
:102AA000F7B50F463C4C207801285AD00120207001
:102AB0003A4840680004400F39490D68820039489F
:102AC00080580268D3B29D4229D14D68D601F60DD7
:102AD000B54224D10D691204120E95421FD18D68A2
:102AE0004268D6B2B5421AD1CD685201520D954214
:102AF00015D14A698568ED03ED0BAA420FD18A69A9
:102B0000C568ED03ED0BAA4209D1CD69026996B201
:102B1000B54204D10D6A9200920C95421DD00B6013
:102B20000268D201D20D4A6002881204120E0A61B4
:102B300002798A6042685201520DCA608268D203EB
:102B4000D20B4A61C268D203D20B8A61028A92B266
:102B5000CA6100698000800C0862780603D00120F9
:102B6000FEBD0220FEBD7D25ED002846FFF76AFB75
:102B700000280DD138460299FFF73CFB2846FFF7A5
:102B800061FB09494A69520852004A610028E9D1AB
:102B900000212170FEBD0000180500200010024039
:102BA000002102402856000800200240002006496B
:102BB0004A69002A07DA054A8A60054A8A60496933
:102BC000002900DA012070470020024023016745F8
:102BD000AB89EFCDF0B500227CE001249440A446FF
:102BE0002340002B75D04C68022C01D0122C0CD144
:102BF000D408A40027183D6A5407E40E0F26A64007
:102C0000B5430E69A6402E433E6206685500032474
:102C1000AC40A6430F79BF07BF0FAF4037430760F3
:102C20004E68012E05D0022E03D0112E01D0122E97
:102C30000ED18668A643CF68AF40374387604768A8
:102C40006646B7430E79F606F60F96403E43466059
:102C5000C668A6438C68AC403443C4604C68E4004A
:102C600037D595081E4CAD002F193D6E9407E40E24
:102C70000F26A640B54305263607B04201D10026EF
:102C800005E0184EB04201D1012600E00226A64020
:102C90002E43134D3E66124E803634689C434F6877
:102CA000FF0300D51C43346074689C434F68BF0326
:102CB00000D51C4374602C689C434E68F60200D516
:102CC0001C432C606C689C434E68B60200D51C43C4
:102CD0006C60521C0B681C46D44000D07DE7F0BDF0
:102CE00000180240000400500069084201D0012091
:102CF000704700207047002A01D0816170478162CF
:102D0000704700000148806870470000CC00002038
:102D100070B50446002C0FD0216810480860216867
:102D20000F4808602168606848602168A068886072
:102D3000FFF7E8FF054608E0012070BDFFF7E2FF5E
:102D4000401B302801D9032070BD2068C0680028CE
:102D5000F4D1216803480860002070BDCCCC00008D
:102D600055550000AAAA0000006802490160002031
:102D700070470000AAAA00000248816842688918CA
:102D800081607047CC00002010B50024032000F0C3
:102D900009F8002801D0012401E000F023F82046C2
:102DA00010BD000070B5054600240C4E7068002868
:102DB00011D00B4800F02CFA002801D001240BE0C0
:102DC000042D06D200222946501E00F017F8356067
:102DD00002E0012400E00124204670BDCC00002068
:102DE000C05D000070470000C106C90E0120884088
:102DF000014908607047000000E100E010B500F0F4
:102E000023FD10BDF8B504460D46002C0FD04D48EB
:102E10000068C007C00FA84218D24A4F386840085F
:102E2000400028433860FFF76DFF064609E00120A7
:102E3000F8BDFFF767FF811B4348814201D903209A
:102E4000F8BD3868C007C00FA842F2D120683F4ED5
:102E500081070DD5400704D5B06807210903084351
:102E6000B060B0680F2109028843A1680843B060D0
:102E70002078C0072DD06068012808D000280BD02A
:102E800032494031096A89070BD40120F8BD316805
:102E9000890306D40120F8BD3168490501D4012019
:102EA000F8BDB168C908C9000143B160FFF72AFF46
:102EB000074607E0FFF726FFC11B2348814201D9DF
:102EC0000320F8BDB068382108406168C900884215
:102ED000F0D11C480168C907C90FA94216D9016879
:102EE0004908490029430160FFF70CFF074607E046
:102EF000FFF708FFC11B1448814201D90320F8BD28
:102F000010480068C007C00FA842F1D120784007E0
:102F100006D5B068072109038843E1680843B0601B
:102F200000F01CF8B1683C2289091140084A515C44
:102F3000C906C90EC8400749086007480068FFF77E
:102F400031FFF8BD0020024088130000001002404D
:102F50005C56000808030020CC00002000B585B0B6
:102F6000142216496846FDF7EFF81548816889066E
:102F7000490F0CD081688906490F012918D0806853
:102F80008006400F032815D0002005B000BD016861
:102F900089044A0F0121914040680004400F042831
:102FA00000D9002080006A461058FDF750F9ECE780
:102FB0000448EAE70120C003E7E70000485600089C
:102FC0000010024000366E01F8B50446002C1DD0FA
:102FD00020783827C007864D002856D0A86838408A
:102FE000082815D06068002807D0A068002817D0EE
:102FF00029690C2291430143296101216068090478
:1030000088420FD12868084328601EE00120F8BDDF
:103010002868800339D56068002836D10120F8BDC2
:103020000120F8BD052301221B049204984206D119
:1030300028681043286028680843286005E028684D
:1030400088432860286890432860606800280ED074
:10305000FFF758FE064606E0FFF754FE801BC8281F
:1030600001D90320F8BD28688003F5D50DE0FFF7EE
:1030700049FE064606E0FFF745FE801BC82801D939
:103080000320F8BD28688003F5D42078800772D526
:10309000AE683E40002E12D0FF20E16801300029CA
:1030A00058D029680722D20291432269114329602E
:1030B000296801432960FFF725FE064640E028689D
:1030C000400502D5E068002809D068686169000CF5
:1030D000000408436860FFF715FE074608E001207A
:1030E000F8BDFFF70FFEC01B022801D90320F8BD71
:1030F00028684005F5D5002E13D128680721C9029C
:103100008843216908432860FFF728FFA9683C220B
:1031100089091140374A515CC906C90EC840364971
:10312000086036480068FFF73DFE002823D00120E4
:10313000F8BDFFF7E7FD801B022801D90320F8BD89
:1031400028684005F5D568686169000C00040843EB
:10315000686010E0296881432960FFF7D3FD0646C7
:1031600006E0FFF7CFFD801B022801D90320F8BD40
:1031700028684005F5D42078000736D5A8681C4D8E
:103180008006400F403503280AD0A06900281AD0D5
:10319000286A012108432862FFF7B4FD04460EE0C7
:1031A000286A800721D5A06900281ED10120F8BD1A
:1031B000FFF7A8FD001B022801D90320F8BD286AEB
:1031C0008007F5D511E0286A400840002862FFF723
:1031D00099FD044606E0FFF795FD001B022801D982
:1031E0000320F8BD286A8007F5D40020F8BD000050
:1031F000001002405C56000808030020CC000020AC
:103200000249CA690243CA617047000000000140D8
:1032100010B50949401E884201D9012010BD074C54
:1032200060610321081F00F00FFB0020A061072050
:103230002061002010BD0000FFFFFF0000E000E063
:1032400070B50446002C05D025462035687F00283F
:1032500002D006E0012070BD00202877204600F053
:103260000AF802206877211D206800F02DFB01205C
:103270006877002070BD7047F8B504460E462546B5
:103280002035287F01280DD001202877022068777B
:103290000427002A08D0042A19D0082A2ED00C2A84
:1032A00055D13EE00220F8BD3146206800F058FBC1
:1032B0002068816908221143816120688169B943CE
:1032C0008161206881693269114381613FE0314643
:1032D000206800F083FB206882690121C9020A434B
:1032E0008261206881690122920291438161206894
:1032F0008169326912021143816128E031462068F8
:1033000000F0ACFB2068C26908210A43C261206852
:10331000C169B943C1612068C16932691143C161A2
:1033200015E03146206800F0D9FB2068C169012210
:10333000D2021143C1612068C269012189028A4316
:10334000C2612068C169326912021143C161012062
:10335000687700202877F8BD10B504460122206860
:1033600000F0F0FA0D482168814205D00C488142F6
:1033700002D00C48814204D1486C0122D203104390
:103380004864206881684907490F062903D001680D
:10339000012211430160002010BD0000002C0140FB
:1033A000004401400048014008B540210268C9437B
:1033B000116002684910116000680168416800915D
:1033C00001684168009101684168009101684068A6
:1033D000009008BDFEE70000074BDA1E19780028B0
:1033E00005D0002010705170372090707047117018
:1033F000D87B507090707047DE000020F0B53049E7
:103400000820CE7906404F7A0740BC46CA7A02406F
:1034100096462C480078C207140F02220346134038
:103420005B001C43042305461D406D082C43050723
:10343000ED0F2C430C72C406E40F264320240546EE
:103440002540ED082E434025284040090643CE7113
:103450001C484078C607360F074617407F003E439A
:1034600007461F407F083E430707FF0F3E438E720B
:10347000C6066746F60F374306462640F60837432A
:103480002840400907434F720E488078C607360F20
:1034900002405200164302461A40520816430207E1
:1034A000D20F16430E73C3067246DB0F1A43034650
:1034B0002340DB081A43284040090243CA72F0BD8A
:1034C000FC040020DB00002070B51749174C207861
:1034D0000207120F0A711022034613409D0883064B
:1034E000DB0F1D4340231840400905434D716078B0
:1034F00005072D0F8D7005461540AD088606F60FA1
:103500003543184040090543CD70A0780407240FC7
:103510000C70024092088406E40F224318404009D0
:1035200002434A7070BD0000FC040020D800002057
:1035300010B5002804DB80B2012100F02FF910BD86
:10354000404200B2632800DD63200A21FCF789FEB7
:10355000CCB20A21FCF785FEC9B2044840220270B1
:10356000C21C515C4170115D817010BDDB000020F8
:1035700070B504461248844200D904460A21204608
:10358000FCF765FE0E460A21FCF761FE0D4664213C
:103590002046FCF75CFE0A21FCF759FE0948002290
:1035A00042700270C21C935D83700B462B4301D0A6
:1035B000535D4370002901D0515C017070BD000063
:1035C000E7030000DB000020054A0028917903D0C2
:1035D0000420014391717047FB20014091717047B5
:1035E000FC040020054A0028917903D00220014301
:1035F00091717047FD20014091717047FC040020DB
:10360000054A0028917903D0012001439171704748
:103610004808400090717047FC040020054A0028CB
:10362000917903D00820014391717047F720014040
:1036300091717047FC040020054A0028517A03D09C
:103640000820014351727047F720014051727047C2
:10365000FC04002010B502460846130000F086FA6C
:103660000705080B0E1114170700FFF7C9FF10BD5F
:10367000FFF7B8FF10BDFFF7A7FF10BDFFF7CEFFA4
:1036800010BD00F007F810BDFFF7D6FF10BD00F029
:103690000FF810BD054A0028D17903D00820014356
:1036A000D1717047F7200140D1717047FC040020B0
:1036B000054A0028D17A03D008200143D17270470F
:1036C000F7200140D1727047FC040020024800211D
:1036D0000170417081707047DB00002010B5002937
:1036E00002D0FFF779FE01E0FFF7F0FFFFF786FE5B
:1036F00010BD000070B5002930D01B4A0024D31C37
:103700004025997B03281BD006DC002809D001281E
:103710000CD0022824D10EE00F2816D010281FD17B
:1037200018E0147051701878907019E0147051708E
:103730005878907014E014705170987890700FE081
:103740006D201070557091700AE014705170D87B24
:10375000907005E015705570957001E0FFF7B6FFA9
:10376000FFF74CFE70BD0000DB00002010B5002903
:103770000CD0002802D0FFF7DBFE09E0064806491E
:103780000078C91E08704870887001E0FFF79EFF3E
:10379000FFF734FE10BD0000DE00002010B5002948
:1037A00002D0FFF7E5FE01E0FFF790FFFFF726FEEE
:1037B00010BD000070B506460A213046FCF747FDF3
:1037C0000D460A21FCF743FD0C4664213046FCF708
:1037D0003EFD0A21FCF73BFD0B460548415D821F7B
:1037E0009170015D5170C05C1070FFF76DFE70BD8F
:1037F000DE00002010B5092800D9092005490A5C1F
:10380000881F82700978417073210170FFF75CFE98
:1038100010BD0000DE00002010B504461421204633
:10382000FCF715FD06498A88944206D98880FDF781
:103830000FFAFDF7D1F980B210BD8C80204610BD83
:1038400014010020704700008307FF22DB0E9A401E
:103850008907090E994000280BDA0007000F083885
:10386000830808489B001818C36993430B43C3613E
:103870007047830804489B001818036893430B4360
:103880000360704700ED00E000E400E0704770471F
:1038900010B5FFF771FA10BD08494868084A000CD6
:1038A00092880004D204D20C104301225203104328
:1038B0004860C80303498860704700000010024058
:1038C000000FFF1F00ED00E070B50268184C194EA4
:1038D000A04201D0B04204D170251346AB434A68E0
:1038E0001A43154B154DA04208D0B04206D0144ED5
:1038F000B04203D0984201D0A84204D10326360238
:10390000B243CE6832438026B2434E6932430260EE
:103910008A68C2620A688262A04203D0984201D0DB
:10392000A84201D1096901630121416170BD000014
:10393000002C0140000400400044014000480140C8
:103940000020004010B5C906C90E01238B40046A4F
:103950009C430462036A8A401343036210BD000063
:10396000F0B5026A520852000262056A4368826931
:103970007024A243920892000C68144302229543DB
:103980008A682A43124E134FB04204D0B84202D084
:10399000114DA84206D10825AA43CD68154304223B
:1039A00095432A46B04204D0B84202D00A4DA842FC
:1039B00008D1FF250135AB436D00AB434D691D4375
:1039C0008B692B4343608461496841630262F0BDA7
:1039D000002C01400044014000480140F0B5026A5B
:1039E00010239A430262046A4368826907252D0303
:1039F000AA4303252D02AA430D682D021543202258
:103A000094438A6812012243114EB04207D18027A5
:103A10001446BC43CA68120122434024A243B04268
:103A200005D00C4CA04202D00B4CA0420AD101247C
:103A3000A402A3436400A3434C69A4001C438B6904
:103A40009B00234343608561496881630262F0BD46
:103A5000002C01400044014000480140F0B5026ADA
:103A6000FF2301339A430262046A4368C2697025E6
:103A7000AA43920892000D68154301225202944312
:103A80008A6812022243124EB04207D1C71414466C
:103A9000BC43CA68120222430415A243B04205D0B7
:103AA0000C4CA04202D00C4CA0420AD101242403A9
:103AB000A3436400A3434C6924011C438B691B018D
:103AC00023434360C5614968C1630262F0BD0000E1
:103AD000002C0140004401400048014070B5026ADA
:103AE00001231B039A430262046A4268C3690725E3
:103AF0002D03AB4303252D02AB430D682D021D435F
:103B000001235B039C438B681E0326430A4B9842A8
:103B100005D00A4B984202D0094B984206D10124A5
:103B2000A4031346A3434A6992011A434260C56144
:103B300049680164066270BD002C014000440140E8
:103B40000048014010B5084C20680068C04380065A
:103B500001D400BF02E00448FFF726FC20202168C2
:103B6000C043086010BD00005404002030B4744607
:103B7000641E2578641CAB4200D21D46635D5B0069
:103B8000E31830BC1847000010B5FDF7B5FD0B4930
:103B90008A6890420DD0886000280AD00022114621
:103BA0001020FDF735FE0120FDF700FE044800213E
:103BB000C18600F033F800F005F810BDAC0100201C
:103BC000D003002070B5144C0025E07C002817D0ED
:103BD000E574207D00280AD000F0C8FD00221146BF
:103BE0000F20FDF715FEFEF76BF8257508E00022A3
:103BF00011460120FDF70CFE00F0FCFD01202075B0
:103C0000207D002806D0A07C002803D0A5740120C8
:103C100000F07EFB70BD0000D003002070B5FDF702
:103C20006BFD002412490123124A00280ED090880F
:103C30000F2801D2401C908090880F2805D350781F
:103C4000002802D1CB745370947070BD9088451ECB
:103C50000E2D00D28B740F2806D35078002803D085
:103C60009078002800D193709480547070BD00004B
:103C7000D0030020AC01002010B51748407B00287D
:103C80000ED00300FFF772FF110C0A0D10131F2254
:103C9000250C0C0C0C0C0C1C16190C0001F04AFA2B
:103CA00010BD01F0B1FA10BD01F078FA10BD01F0BD
:103CB000DFFA10BD01F02EF910BD01F045F910BD7D
:103CC00001F06CF910BD01F099F910BD01F0FEF999
:103CD00010BD01F0C7F910BDF0030020F0B587B0AA
:103CE0000C460290214638480190029801F034FCBD
:103CF00047007F0806903548344D807C603D059034
:103D0000334E296B0491002826D00498FCF764FFF9
:103D1000E96B884207D22F490698884203DA74611A
:103D20003461F460B4602C48C178002907D1746113
:103D30003461F460B460746034600121C17027485C
:103D4000874203DD7D20C005019008E024488742BA
:103D500005DA2448019002E01F480021C170019952
:103D6000029801F069FB04467F20C005019901F02B
:103D7000F3FB0390316801F05FFB214601F0ECFAA0
:103D800030600124601E80003058019901F054FB1E
:103D90000090A700F159039801F04EFB009901F043
:103DA000DBFAF051641C062CECDB0598002808D0E7
:103DB0000498FCF711FF296C884202D2706907B0A1
:103DC000F0BDB068FBE700000AD7A33DF003002078
:103DD000700500200000A040140100200000C84130
:103DE000000020410AD7A33CFEB50090009801F0E6
:103DF000B3FB46003B4F7608BE603B4D3F24240694
:103E0000AE420ADA29463046FCF736FE374901F061
:103E100013FB214601F0A0FA0DE02946304601F0DF
:103E20009BFB2946FCF728FE0221FCF71DFF8121A0
:103E3000C90501F091FAA04200DA20464124240687
:103E4000A04200DD2046F860029029468E420ADA40
:103E50003046FCF711FE264901F0EEFA7F21C90534
:103E600001F07AFA0DE00D46304601F075FB294667
:103E7000FCF702FE0221FCF7F7FE8121C90501F0E3
:103E80006BFA7F25ED05A84200DA2846A04200DD46
:103E90002046044638617868029901F05DFA0646CA
:103EA0002146304601F058FA01463046FCF7E4FD61
:103EB000786101903C680098214601F04DFB019922
:103EC00001F0BAFA214601F047FA04463860284664
:103ED000019901F041FB314601F0AEFA78602046CD
:103EE000FEBD000094010020000020410000604061
:103EF0000000404070B5344915254D57002201247B
:103F0000C0392B00FFF732FE071005111D333F5457
:103F10001000486E002801D04A6600E04C66486EEA
:103F20000121C0B2FFF7DAFB70BD886E002801D016
:103F30008A6600E08C66886E0121C0B2FFF7CEFB76
:103F400070BD002806D0086E32280ADA086E401CC0
:103F5000086606E0086E3222D04202DD086E401E7E
:103F60000866086E012100B2FFF700FC70BD086F03
:103F7000002801D00A6700E00C67086F0121C0B279
:103F8000FFF7ACFB70BD002806D0486F322809D27D
:103F9000486F401C486705E0486F002802D0486F12
:103FA000401E4867486F012100B2FFF7DFFB70BD7C
:103FB000886F002801D08A6700E08C67886F012134
:103FC000C0B2FFF78BFB70BDD003002070B51B485B
:103FD00002681B4B7D26D8681946151A0878F6002A
:103FE00001244978B5420ED3DA60032802D80020B4
:103FF000587006E0491CC8B25870032801D9032044
:1040000058701C7007E0401CC0B21870032802D919
:10401000002900D15C705878002807D0012807D00B
:10402000022807D0032807D0052070BD052070BDE9
:104030000A2070BD0F2070BD142070BDD400002078
:10404000B801002010B5084C207C00280AD00120BF
:10405000FDF7ACFB0020E086207404490870607C0A
:1040600000F006F810BD0000D0030020AC010020D5
:1040700010B50C49097D002907D0FFF73BFF00224E
:1040800011461020FDF7C4FB10BD00F0EFF8002230
:1040900001211020FDF7BCFB024800212030817473
:1040A00010BD0000D003002010B50020FDF79CFAE1
:1040B000044CA060FDF7A8F8E061FCF7A9FF2063BD
:1040C00010BD00001003002010B50420FDF78CFA8D
:1040D0000149886110BD00001003002010B50120C7
:1040E000FDF782FA024CE060FDF75CFA206210BD39
:1040F0001003002010B5FCF797FF0149486310BD7D
:104100001003002070B5FDF725FF0120FEF7D2FB5C
:104110000220FDF769FA254C20612146E031C97C77
:10412000732904D0D22906D0F5290BD107E000F07D
:10413000CFFC606206E000F00DFD606202E000F07E
:104140004BFD60621A48616A814200DD6062E06D89
:10415000FCF786FD0146606AFDF7E2F8A063206087
:104160001248C030C07D07280FD0E06DFCF778FD05
:104170000546E06DFCF774FD01462068FFF734FE4C
:104180002946FFF7ABFDE06470BDE06DFCF768FD0C
:104190000546E06DFCF764FD01460020FFF724FEB4
:1041A0002946FFF79BFDE06470BD0000100300206E
:1041B0000000164410B5FFF787FF0B480121806906
:1041C000C902884201D9F52010BD0721C9018842E2
:1041D00001D2D22010BD054940180549884201D2BC
:1041E000732010BD002010BD100300207FFCFFFFD6
:1041F0007F02000010B50E498879002812D00020F7
:1042000088710C490A7D002A0BD1C97D042908D088
:10421000052906D00749C039896E002904D000F06D
:104220000BF810BD0120EBE7012000F005F810BDF0
:10423000B8010020D003002010B50B49CA6E012A36
:1042400008D0022A0BD0032A03D101460020FFF731
:1042500001FA10BD01460220FFF7FCF910BD01462E
:104260000120FFF7F7F910BD1003002070B5274CAF
:10427000A16E002926D0002806D0E06E032809D2BE
:10428000E06E401CE06605E0E06E012802D9E06EB9
:10429000401EE06601210020FFF7DCF901210846FD
:1042A000FFF7D8F901210220FFF7D4F9E06E32219F
:1042B000401E4843FF302D30E065E06D80B2FFF7CF
:1042C00079FA70BD00280ED0E06DFF25C335A842F5
:1042D00004D2FFF77BFEE16D4018E065E06DA84277
:1042E0000ED9E5650CE0E06D692804D3FFF76EFE9A
:1042F000E16D081AE065E06D642801D26420E06594
:10430000E06D80B2FFF756FA70BD00001003002088
:1043100010B5314C002809D0607D401C6075152017
:10432000205606280BDD0120607508E0607D401EE8
:10433000607515202056012801DA062060751520C9
:10434000205680B2FFF756FA15202056224C030063
:10435000C03CFFF70BFC070E050F19232D370E008D
:1043600000210620FFF776F9606E0121C0B2FFF749
:10437000B5F910BD00210620FFF76CF9A06E0121F0
:10438000C0B2FFF7ABF910BD01210620FFF762F9BB
:10439000206E012100B2FFF7E9F910BD00210620CF
:1043A000FFF758F9206F0121C0B2FFF797F910BD50
:1043B00000210620FFF74EF9606F012100B2FFF7E0
:1043C000D5F910BD00210620FFF744F9A06F0121A7
:1043D000C0B2FFF783F910BDD0030020F8B5FDF798
:1043E000E5FD324E324D3446C034002823D0E87803
:1043F000002814D10420E0750121FFF72BF900F00B
:10440000E5FA002211461020FDF702FA207D00286F
:1044100003D101210620FFF71DF90120E870316862
:104420002448814206DA6879002803D101206871A6
:104430000520E075F8BDE878002700281DD0EF7052
:104440006F710120FDF7B2F9E775002211461020C7
:10445000FDF7DEF900210420FFF7FCF8207D00289D
:104460000BD1B06F002804D000210620FFF7F2F82E
:1044700003E001210620FFF7EDF830680E4988427D
:104480000CDB0720E0752879002804D100221146B2
:104490000F20FDF7BDF901202871F8BD287900280B
:1044A000FBD0FCF7A3FF2F71F8BD00001003002024
:1044B000B80100200000C84200001644F8B5344995
:1044C0000025086B4200120E002A41D08A6B002A98
:1044D0003ED0896AFCF7D0FA01467F22D20591428C
:1044E00000DD1146FF20C005C14200D30021294E46
:1044F000294F2A4800F0A0FF394601F021F8044670
:104500003146204600F06EFF00D234463946204640
:1045100000F0EAFF00D23C46214E2046314601F031
:104520001BF83146FCF7A8FAFCF756FB82B21D498E
:104530008878002814D00889401C80B2088101289E
:1045400021D30D818D7000210520FFF783F8F8BD80
:1045500014480581857000210520FFF77BF8F8BD20
:104560000889401C80B20881904207D30D81012048
:10457000887001210520FFF76DF8F8BD00210520A6
:10458000FFF768F8F8BD01210520FFF763F8F8BDD3
:10459000900300200000484300007A4500806D45EC
:1045A0000000C842B801002010B5FFF77DFD0648A5
:1045B0000649006B884205DD03480621C030C175FD
:1045C000FCF7B6FC10BD000010030020000096426E
:1045D00070B50526360720213046FEF785FB174DBE
:1045E000174C002805D180213046FEF77DFB0028BE
:1045F00015D00120FCF7F8FFE86080B2FDF73CFE23
:10460000FCF710FA00222346FCF7E8F80322920791
:104610000C4BFCF7E3F8FBF7CBFEA86470BD002061
:10462000E860FDF729FEFCF7FDF900222346FCF7C0
:10463000D5F8FBF7BDFEA86470BD00001003002094
:1046400000003840CCCCEC3FFEB5454FF86DFCF790
:1046500007FBF96C029100F073FF400040080090E6
:10466000404EF069401CF06101903C46E034A07C73
:104670002546603D002808D0286BFCF7ADFA296C70
:10468000884202D20A20B06101E00120B0610198A5
:104690007169421AB069824214D3081870613048B7
:1046A000C030C17D0B00FFF761FA08340D050D180D
:1046B0002C0D0E0D007D002802D10121FFF71AF804
:1046C0000020A074FEBD007D002803D1012103203D
:1046D000FFF710F80020A074FEBD007D00280DD16A
:1046E0000298FCF779FA3169884207D280B2012139
:1046F000FFF754F8F86CFCF76FFA30610020A074F3
:10470000FEBD007D0028FBD101211020FEF7F2FF45
:10471000FEBD007D002811D1B86F002807D0286E9B
:10472000FCF75AFA80B20121FFF738F806E0029848
:10473000FCF752FA80B20121FFF730F80A490098DD
:10474000884209DAA07C002804D1002211461020FA
:10475000FDF75EF80120A074FF20C3303061FEBD7C
:1047600010030020B80100200000404010B50121D6
:104770000020FEF76FFF01210846FEF76BFF0121C5
:104780000220FEF767FF134CA06E002812D0E06EE7
:10479000012804D0022806D003280BD107E0FF200F
:1047A0002D30E06506E0FF205F30E06502E0FF208D
:1047B0009130E06507480121C0304175E06D80B25D
:1047C000FEF7F8FFA06F002803D101210620FEF7B5
:1047D00041FF10BD10030020884203D3904201D353
:1047E00000207047814203D3914201D301207047DA
:1047F0000220704710B500210846FEF72BFF00216C
:104800000120FEF727FF00210220FEF723FF264CA0
:104810001520205680B2FEF7EDFF15202056C03C33
:104820000300FFF7A3F9070E050F19232D370E001C
:1048300000210620FEF70EFF606E0121C0B2FEF7D8
:104840004DFF10BD00210620FEF704FFA06E0121E0
:10485000C0B2FEF743FF10BD01210620FEF7FAFEAD
:10486000206E012100B2FEF781FF10BD002106205D
:10487000FEF7F0FE206F0121C0B2FEF72FFF10BD42
:1048800000210620FEF7E6FE606F012100B2FEF770
:104890006DFF10BD00210620FEF7DCFEA06F012198
:1048A000C0B2FEF71BFF10BDD0030020F3B581B0EE
:1048B0000299019800F0D0F80299019800F09AF856
:1048C00007463E4C0126A06BF607002874D00198DD
:1048D000FCF7C6F9029900F03FFE05463946E0684C
:1048E00000F03AFD294600F0A7FDA06129462069A5
:1048F00000F0A2FD216A00F09FFDE16900F02CFDAF
:104900000746E0612846E16A00F026FE616900F092
:1049100093FD6062E5623846A16A00F0E5FD01D2D0
:10492000A06AE061A06AE169704000F0DDFD02D29A
:10493000A06A7040E061E169A06900F00DFD616A64
:1049400000F00AFD054620631C486030C17C7329D5
:1049500004D0D22905D0F52910D105E018486063AC
:104960000CE01848606309E014488038006E282184
:10497000484315494018FCF76BF96063FF20C005F8
:10498000C54201D300202063616B206B00F0ACFDB9
:1049900001D2606B2063616C0198401AFCF760F9EA
:1049A000029900F0A1FD01D2606B2063206BFCF73F
:1049B00013F980B2FDF7F4FAFEBD00009003002069
:1049C0000000AF4400A00C45881300000748C17DDB
:1049D0004038002906D000218163C161016204488A
:1049E000816370470121816370470000D00300207C
:1049F0000004004010B50C46FCF732F9214600F0E7
:104A0000ABFD00210122D20590420BDB064C214672
:104A100000F0A2FD0549C96800F00EFD2146FCF733
:104A20002BF80146084610BD0000A040900300206E
:104A300010B50848C07D05280AD0FFF763FB05497B
:104A4000C039C86D0A6E0968801880B2FFF72EFF62
:104A500010BD0000D0030020F8B505460F462846DB
:104A6000FCF7FEF806461948184CC07C603C7328D9
:104A700004D0D22805D0F52808D105E0FDF720FAAA
:104A800004E0FDF71DFA01E0FDF73EFAE06C401985
:104A9000FCF7E6F8394600F0A5FC03D20020E061FF
:104AA00020620FE0A06C281AFCF7DAF8394600F013
:104AB00099FC07D23046394600F016FD02D27F201D
:104AC000C0052062FFF782FFF8BD0000F003002060
:104AD000F8B504462046FBF77EFE164A164BFBF758
:104AE0007DFE06460F462046FCF7BAF8009000F01F
:104AF00001FAFBF797FF114A114BFBF76FFE0446D3
:104B00000D46009800F0FBF9FBF78CFF0D4A0E4BA9
:104B1000FBF764FE22462B46FBF704FE32463B467B
:104B2000FBF700FE094A0A4BFBF7FCFDFBF740FCD4
:104B3000F8BD0000304CA60A4625EF3F2A4E5A5DCC
:104B4000F34F35BFE7A52A8DE517693E9A999999E4
:104B500099D582C0F8B504462046FBF73CFE164ABC
:104B6000164BFBF73BFE06460F462046FCF778F84F
:104B7000009000F0BFF9FBF755FF114A114BFBF70E
:104B80002DFE04460D46009800F0B9F9FBF74AFFE8
:104B90000D4A0E4BFBF722FE22462B46FBF7C2FDC9
:104BA00032463B46FBF7BEFD094A0A4BFBF7BAFD0E
:104BB000FBF7FEFBF8BD0000CB10C7BAB88DE83F8D
:104BC00044B97E0BFCF233BF7DAA55D59035733EB8
:104BD000CDCCCCCCCCCC70C0F8B504462046FBF78D
:104BE000FAFD164A164BFBF7F9FD06460F4620461E
:104BF000FCF736F8009000F07DF9FBF713FF114A3F
:104C0000114BFBF7EBFD04460D46009800F077F9D9
:104C1000FBF708FF0D4A0E4BFBF7E0FD22462B4643
:104C2000FBF780FD32463B46FBF77CFD094A0A4B09
:104C3000FBF778FDFBF7BCFBF8BD0000C139234A48
:104C40007B83CF3F8593558D358E0EBF3C0681818A
:104C500000F8453E7B14AE47E1EA52C070B5254DE1
:104C60002968254C2068091A0A2907D30A302060D0
:104C7000FFF7DEFEFFF73EFAFEF7FEFF2968A068A9
:104C8000091A322903D33230A060FFF7DBF9296813
:104C90006068FF22091A2D32914206D380186060A5
:104CA000FFF79CFB1548FEF75FF82968E0680A1AD1
:104CB0007D21C9008A4209D34018E060FFF79AFAC3
:104CC000FFF772FCFCF714FBFCF7F2FA2968206985
:104CD000091A64290BD364302061FEF755FFFCF7F5
:104CE000BBFAFFF7B1FCFFF7E9FBFCF7B3FEFFF7F8
:104CF0006FFC70BDD4000020F00000200C050020E7
:104D0000FFB585B0059844680598806804900598BB
:104D1000008802900298401E8000201803900193A2
:104D200023E006980168039801600698001D06902C
:104D30000398001D0390002000902546049E029FCA
:104D400002CE01CD00F078FB009900F005FB009049
:104D50007F1E002FF4D10799009808600798001D66
:104D60000790241D0198401E019001980028D8D179
:104D7000059841680298401E02E004CC04C1401E20
:104D80000028FAD109B0F0BD30B5002903D004687D
:104D90000025012209E0002030BD9300C358A34242
:104DA00001D91C461546521CD2B28A42F5D36D1C5D
:104DB000E8B230BD10B5094C884201DC208810BD36
:104DC000904201DBA08910BD521A401A06214843C7
:104DD0001146FBF746FA4000205A10BDFA020020A7
:104DE000FDF7D2FFFF209130FDF764FDFCF796FD43
:104DF000FCF7C0FDFCF7B8FCFCF7EAFC1248012107
:104E0000008AC903C004C00C4018FDF7DDF8192062
:104E1000FDF750FDFCF786FFFCF77CFCFDF79AF8E8
:104E2000FCF75AFCFCF710FCFCF7E8FFFCF756FE19
:104E3000FCF7DCFAFCF7C2FF002211461020FCF759
:104E4000E7FCFFF70BFFFCE7000FFF1FF0B585B095
:104E5000144D154C2A78910060500521501CFBF729
:104E6000F6F9297000206E46810062587250401C8D
:104E70000528F9DB002100200422571A09E0421C12
:104E8000850092007459B3589C4201D97351B450B3
:104E9000401C8742F3DC491C0429ECDB029805B076
:104EA000F0BD0000140100205005002010B50028BE
:104EB00002D000F009F810BD0520002240210007B3
:104EC000FDF719FF10BD000010B500280BD00146FA
:104ED0000548FBF7BCF9401E0449C8624008486316
:104EE000496B0348816610BD00093D000044014044
:104EF0009003002010B5014600F09EFA10BD10B5D9
:104F000004462146204600F097FA214600F094FA24
:104F100010BD000070B50A4CE08B401C80B2E083ED
:104F2000012801D100F032F8E08B502806D3054863
:104F3000002545730020FFF7B9FFE58370BD000031
:104F4000D8010020F003002070B50A4C208C401CD2
:104F500080B22084012801D100F010F8208C0528AF
:104F600006D30548002545730020FFF79FFF2584E1
:104F700070BD0000D8010020F003002010B505200E
:104F8000012240210007FDF7B6FE10BD10B5052037
:104F9000012240210007FDF7AEFE10BDF8B5154C0B
:104FA000FF262178204600259136808C0127002994
:104FB00008D0401D80B2A0847D21C900884207D35B
:104FC000257005E0401F80B2A084B04200D8277051
:104FD000A08CFFF76BFF608C401C80B26084C828F7
:104FE00007D30020FFF762FF6584A684277002487C
:104FF0004573F8BDD8010020F003002070B5174CB0
:1050000000252089002814D1E088022806D3E580F5
:10501000134845730020FFF749FF70BD0F4940005A
:105020002A31085AFFF742FFE088022801D2401CCB
:10503000E0802089401C81B2218109481722603814
:10504000806E00F04BF92089172802D10020FFF76D
:105050002DFF20891928E0D3258170BDD8010020BB
:10506000F003002070B5174C0025A089002814D14A
:105070006089062806D36581134845730020FFF731
:1050800015FF70BD0F494000F631085AFFF70EFFBB
:105090006089062801D2401C6081A089401C81B231
:1050A000A181094817226038806E00F017F9A089A5
:1050B000172802D10020FFF7F9FEA0891928E0D3B4
:1050C000A58170BDD8010020F003002070B5174CF9
:1050D0000025A088002814D16088032806D36580A5
:1050E000134845730020FFF7E1FE70BD0F494000F3
:1050F0002E31085AFFF7DAFE6088032801D2401CDF
:105100006080A088401C81B2A180094817226038C5
:10511000806E00F0E3F8A088172802D10020FFF786
:10512000C5FEA0881928E0D3A58070BDD801002055
:10513000F003002070B5174C0025208A002814D1F8
:10514000E089032806D3E581134845730020FFF763
:10515000ADFE70BD0F4940003431085AFFF7A6FE7E
:10516000E089032801D2401CE081208A401C81B2E2
:105170002182094817226038806E00F0AFF8208A3B
:10518000172802D10020FFF791FE208A1928E0D3CA
:10519000258270BDD8010020F003002070B5174CA7
:1051A0000025208B002813D1E08A092806D3E58248
:1051B000134845730020FFF779FE70BD1149400088
:1051C000085AFFF773FEE08A092801D2401CE082EA
:1051D000208B401C81B22183094817226038806EE1
:1051E00000F07CF8208B172802D10020FFF75EFE2C
:1051F000208B1928E1D3258370BD0000D801002041
:10520000F0030020DA02002070B5174C0025A08AB8
:10521000002814D1608A032806D365821348457399
:105220000020FFF743FE70BD0F4940003A31085A95
:10523000FFF73CFE608A032801D2401C6082A08AEE
:10524000401C81B2A182094817226038806E00F0AC
:1052500045F8A08A172802D10020FFF727FEA08A70
:105260001928E0D3A58270BDD8010020F0030020EA
:1052700070B5174C0025A08B002813D1608B072830
:1052800006D36583134845730020FFF70FFE70BDFA
:1052900011494000085AFFF709FE608B072801D228
:1052A000401C6083A08B401C81B2A1830948172257
:1052B0006038806E00F012F8A08B172802D1002011
:1052C000FFF7F4FDA08B1928E1D3A58370BD000082
:1052D000D8010020F0030020EC02002010B50B469E
:1052E0001146002805D0CA1A5043FAF7B0FF014909
:1052F000486310BD0044014000B516490300FEF7A5
:1053000035FC110C0A0D10131F22250C0C0C0C0C73
:105310000C1C16190C000120487300BD02204873B4
:1053200000BD0320487300BD0420487300BD0F205A
:10533000487300BD1020487300BD0E20487300BDA7
:105340000520487300BD0620487300BD0720487340
:1053500000BD0000F003002070B501250400ED073A
:105360004C4020D4441A01D2001B0919C60D4B0031
:10537000F2B2FF2A29D01B0E2CD000020C02D31A45
:105380002C43DC402843051910D2280A02D3401CC4
:105390006D0611D0761EF6058019FF2A00DA70BD61
:1053A000C00DC00570BD694000F0DCF80120054368
:1053B000C541521C761CE8E764089C40C901614065
:1053C0008900E7D10124A043E4E71B0E440200D08A
:1053D000034870BD002AFCD1C00FC00770BD00BFDC
:1053E0000000C07F01230200DB050A430DD4DA422E
:1053F00003D49A4207D488427047D84214D4D94281
:1054000012D48842704780427047DA4203D59A42EC
:10541000F9D5814270475B004200DA4204D24A006B
:10542000DA4201D28142704710B5024AFBF73EFCD6
:1054300010BD00BF0900160470B5420064414B0066
:105440005C41120E39D01B0E38D0FF2A3CD0FF2B06
:105450003AD040024902400A490A060045184E4324
:10546000000A090AD2184843ED017F3A0104731A71
:105470004019190C4318990F04D001215B08490702
:105480005B1A521CD80904D3401CF50301D19D06B8
:1054900007D0FF2A08D2D50506D0E40720434019DB
:1054A00070BD0125A843F4E7002A01DCE00770BDC8
:1054B0002402FF202043C00570BD1B0EFF2A03D02D
:1054C000FF2B01D0E00770BDFF2645003606B54230
:1054D00006D84D00B54203D8D218FF2A00D0E7E71E
:1054E000004870BD0000C07F01230A00DB050243B5
:1054F0000DD4DA4203D49A4207D481427047D9428C
:1055000014D4D84212D48142704789427047DA429B
:1055100003D59A42F9D5884270475B004A00DA42C7
:1055200004D24200DA4201D28842704748404140EA
:1055300010B5024A4840FBF7B9FB10BD090016043C
:1055400070B50125ED07684004004C4002D5694064
:1055500000F008F8FFF706FF70B501250400ED071D
:105560004C4022D4441A02D26C40001B0919C60DCB
:105570004B00F2B2FF2A4BD01B0E50D000020C029F
:10558000D31A2C43DC40A843051B05D5AD0019D325
:105590006D08761E521E37D0F605280A01D28019F2
:1055A00070BD70416D0603D070BD6940FFF7DAFE33
:1055B0009C4009026140490001D0401E70BD012499
:1055C000A04370BD6D081DD001202B0C01D12D040E
:1055D00010302B0E01D12D0208302B0F01D12D01DF
:1055E000001DAB0F01D1AD00801CEB0F01D16D0090
:1055F000401C6D00361A121A680AF5054019012A76
:1056000002DB70BD002070BDC036300AC00770BD1F
:105610001B0E440201D1FF2B00D1024870BD002AAD
:10562000F0D070BD0000C07F1C0FFF1F300FFF1FA8
:10563000440FFF1F580FFF1F6C0FFF1F1C0FFF1F92
:105640001C0FFF1F1C0FFF1F00093D0000127A00F6
:105650000024F4004086510100366E010000000075
:10566000000000000000000000000000000000003A
:105670000000000000000000000000000100000029
:10568000020000000300000004000000060000000B
:1056900007000000080000000900000000093D00AC
:1056A00000127A000024F4004086510100366E0199
:1056B00000093D0000093D0000093D00818283840E
:1056C00085868788898B8C8D8E8F919293959697FE
:1056D000999A9C9D9FA0A2A3A5A7A8AAACAEB0B280
:1056E000B3B5B7B9BCBEC0C2C5C7C9CCCED1D4D77B
:1056F000D9DCDFE2E6E9ECF0F3F7FAFE1C5700082C
:105700000000002008040000120E000810580008D5
:1057100008040020280600000401000801CC32041F
:10572000D2010011183F065B4F666D7D077F6F77D2
:105730007C395E7971CB803E04812BC0415413309B
:10574000051C20040104315A400C580C9A99193E4A
:10575000CDCC4C3E9A9999085A19380B15803F6464
:105760003918256F12033AEB484418295B29B1090F
:1057700010181A80182904012E0223013A902518C6
:10578000092C09270527052C090A400C082C094C6F
:105790000A4C0A2C092C082FBF0D6E0F59100465F6
:1057A00099146E0F2920880BBF0D3F0CBF0D5910A7
:1057B0003F0C143AE9048559104C0A2B5910021C6D
:1057C0006E0FE9186B6E0F40091456091458299C86
:1057D0004956292E88095A125A1299145910602DC7
:1057E0006E0FBF0D4E2936A119C019C8494449D2C0
:1057F0002BE90A222984296229AA29E2C91C110459
:1058000085366E0112F012081AF8041AFF04016BB3
:04000005080000C12E
:00000001FF
